:020000040800F2
:1000000000000220ED230008210800082308000852
:10001000250800082708000829080008000000003B
:100020000000000000000000000000002B08000895
:100030002D080008000000002F0800083108000803
:100040003D2400083D2400083D2400083D2400080C
:100050003D2400083D2400083D2400083D240008FC
:100060003D2400083D2400083D2400083D240008EC
:100070003D2400083D2400083D2400083D240008DC
:100080003D2400083D2400083D2400083D240008CC
:100090003D2400083D2400083D2400083D240008BC
:1000A0003D2400083D2400083D2400083D240008AC
:1000B0003D2400083D2400083D2400083D2400089C
:1000C0003D2400083D2400083D2400083D2400088C
:1000D0003D240008152300083D2400083D240008A5
:1000E0003D2400083D2400083D2400083D2400086C
:1000F0003D2400083D2400083D2400083D2400085C
:100100003D2400083D2400083D2400083D2400084B
:100110003D2400083D2400083D2400083D2400083B
:100120003D2400083D240008390800083D2400084B
:100130003D2400083D2400083D2400083D2400081B
:100140003D2400083D2400083D2400083D2400080B
:100150003D240008490800083D2400083D2400080B
:100160003D2400083D2400083D2400083D240008EB
:100170003D2400083D2400083D2400080000000044
:080180003D2400083D240008A5
:1001880010B5054C237833B9044B13B10448AFF3C9
:1001980000800123237010BD0C0000200000000027
:1001A8009824000808B5034B1BB103490348AFF373
:1001B800008008BD000000001000002098240008FE
:1001C80053B94AB9002908BF00281CBF4FF0FF31B6
:1001D8004FF0FF3000F06EB9ADF1080C6DE904CEB8
:1001E80000F006F8DDF804E0DDE9022304B070470A
:1001F8002DE9F047089D04468C46002B40F083808B
:100208008A42174647D9B2FA82F242B1C2F12000B7
:1002180024FA00F09140974040EA010C94404FEADC
:100228001748230CBCFBF8F61FFA87FE08FB16C11B
:1002380043EA014306FB0EF1994209D9FB1806F17E
:10024800FF3080F01981994240F21681023E3B440A
:100258005B1AA4B2B3FBF8F008FB103344EA03447A
:1002680000FB0EFEA64509D93C1900F1FF3380F0CA
:100278000581A64540F2028102383C4440EA064026
:10028800A4EB0E0400261DB1D4400023C5E90043A9
:100298003146BDE8F08702B9FFDEB2FA82F2002AE1
:1002A80050D1CB1B4FEA174E1FFA87F80126B3FB34
:1002B800FEFC210C0EFB1C3341EA034108FB0CF346
:1002C8008B4207D979180CF1FF3002D28B4200F229
:1002D800E9808446C91AA3B2B1FBFEF00EFB1011E7
:1002E80043EA014408FB00F8A04507D93C1900F18E
:1002F800FF3302D2A04500F2D9801846A4EB0804C7
:1003080040EA0C40BFE78B4209D9002D00F0B180CC
:100318000026C5E9000130463146BDE8F087B3FA4A
:1003280083F6002E4AD18B4202D3824200F2B88073
:10033800841A61EB030101208C46002DA8D0C5E981
:10034800004CA5E7C2F1200320FA03F6974001FA12
:1003580002F04FEA174ED9403043030CB1FBFEF6CA
:100368001FFA87F80EFB161143EA014306FB08F152
:10037800994204FA02F409D9FB1806F1FF3C80F00F
:100388008D80994240F28A80023E3B445B1A81B2DA
:10039800B3FBFEF00EFB103341EA034100FB08F308
:1003A8008B4207D9791800F1FF3C73D28B4271D97F
:1003B80002383944CB1A40EA064678E7C6F1200CE1
:1003C80003FA06F422FA0CF31C4320FA0CF701FA9C
:1003D80006F34FEA144E21FA0CF11F433B0CB1FB14
:1003E800FEF91FFA84F80EFB191143EA014109FBD3
:1003F80008FA8A4502FA06F200FA06F308D96118E3
:1004080009F1FF3048D28A4546D9A9F102092144A9
:10041800A1EB0A01BFB2B1FBFEF00EFB101147EAD7
:10042800014700FB08F8B84507D9E71900F1FF3183
:100438002ED2B8452CD90238274440EA0940A7EB08
:100448000807A0FB02894F45C64649461AD317D06C
:100458005DB1B3EB0E0267EB010707FA0CFCF24043
:100468004CEA0202F740C5E9002700263146BDE8FC
:10047800F0872E4628460BE70646E9E61846FDE6CD
:100488004345E5D2B8EB020E69EB04010138DFE71A
:100498000846D2E760468DE78146B9E7664675E7C4
:1004A80030464AE7ACF1020C394413E702383C44C1
:1004B80024E700BF704700BF10B582B00024019444
:1004C8000D4B1A6B42F480021A631B6B03F4800312
:1004D8000193019B224621463A2000F0EFFB3A2087
:1004E80000F020FC22462146452000F0E7FB45208D
:1004F80000F018FC02B010BD0038024000B58BB007
:1005080000220892099200921E4B196B41F040019B
:100518001963196B01F04001009100990192196B60
:1005280041F001011963196B01F001010191019971
:100538000292196B41F002011963196B01F0020173
:10054800029102990392196B41F480711963196B36
:1005580001F48071039103990492196B41F08001B1
:1005680019631B6B03F080030493049B0123059319
:100578000692079305A9044800F0B6FD0BB05DF894
:1005880004FB00BF0038024000000240DFED077A9C
:1005980020EE270ADFED067A30EE270A054B1B68A6
:1005A800BCEEC00A83ED0E0A704700BF7B09ED4020
:1005B8000000FA432C000020DFED077A20EE270A1E
:1005C800DFED067A30EE270A054B1B68BCEEC00A41
:1005D80083ED0F0A704700BF1CC731410000FA4382
:1005E8002C00002008B50121044800F067FE01280E
:1005F80003D1642000F03CFBF5E708BD0000024091
:1006080072B6FEE700B595B03022002108A801F0C7
:1006180037FF0023039304930593069307930193ED
:10062800204A116C41F080511164126C02F0805222
:100638000192019A02931C4B1A6842F480421A6094
:100648001B6803F480430293029B012308934FF431
:100658008033099302230E934FF480020F920622EF
:100668001092A822119212930423139308A800F061
:100678002DFE98B90F2303930223049300230593B7
:100688004FF4A05306934FF480530793052103A812
:1006980001F068F820B915B05DF804FBFFF7B0FF6A
:1006A800FFF7AEFF003802400070004010B52DED96
:1006B800028B00F0B1FAFFF7A5FFFFF71FFFFFF766
:1006C800FBFE00F017F900F097F900F07BF94FF402
:1006D800FA7000F0CDFA3A4C0421204601F0F4FA01
:1006E8000821204601F0F0FA3FE0B0EE480AFFF793
:1006F80063FF4FF47A7000F0BBFA324B93ED001AA7
:10070800F3EE090A78EE600A9FED2F0A38EEC00A68
:1007180001F06AFD642000F0ABFAF0EE087A38EEDA
:10072800278ADFED2A7AB4EEE78AF1EE10FADCD9EF
:10073800F0EE087A78EEA78ADFED257AF4EEE78AFC
:10074800F1EE10FA0AD8B0EE680AFFF71FFF4FF46F
:100758007A7000F08DFAB3EE098AE2E74FF47A7006
:1007680000F086FA1B4B00221A7001F07BFDB3EEF5
:10077800090AFFF721FF4FF4FA7000F079FA9FEDAC
:10078800160AFFF703FF4FF4FA7000F071FAFFF74B
:1007980029FFDFED0D8AB0EE680AFFF7F7FE4FF488
:1007A800FA7000F065FAFFF71DFF9FED0C0AFFF7DE
:1007B800EDFE4FF4FA7000F05BFAFFF713FFBBE7AA
:1007C8002C000020C001002000008C420000A6423E
:1007D800000000432A0000200000C5420000FE423D
:1007E80082B0002100910B4B5A6C42F480425A644B
:1007F8005A6C02F480420092009A01911A6C42F0FD
:1008080080521A641B6C03F080530193019B02B061
:10081800704700BF00380240FEE7FEE7FEE7FEE74C
:10082800FEE770477047704708B500F00FFA08BD3B
:1008380008B5024800F06AFB08BD00BFD4000020DC
:1008480008B5024800F062FB08BD00BF7400002034
:10085800034AD2F8883043F47003C2F888307047EE
:1008680000ED00E00268094B9A4200D0704782B060
:1008780000230193064B5A6C42F002025A645B6CE7
:1008880003F002030193019B02B07047000401408A
:100898000038024000B587B0002301930293039308
:1008A80004930593026803F1804303F582339A4267
:1008B80002D007B05DF804FB002300930B4A116BCC
:1008C80041F480711163126B02F480720092009AF5
:1008D800C0220192022202920393049303230593F8
:1008E80001A9034800F000FCE3E700BF003802401C
:1008F8000020024010B592B000241094119409947D
:100908000A940B940C940D940E940F942022214673
:1009180001A801F0B5FD2948294B0360A7234360CE
:10092800846044F61F63C36004614461846101F01C
:10093800E7F8002833D100231093119310A91F481A
:1009480001F044FA00282DD1602309934FF4FA737B
:100958000A9300230B930C930D930E930F93042289
:1009680009A9164801F030F9F8B9082209A913486D
:1009780001F02AF9E0B90023019302930393049349
:1009880005934FF400520692089301A90B4801F011
:1009980061FA80B90948FFF77DFF12B010BDFFF773
:1009A8002FFEC8E7FFF72CFECEE7FFF729FEDCE7AE
:1009B800FFF726FEDFE7FFF723FEEBE72C0000201A
:1009C8000004014008B50A480A4B03604FF461234C
:1009D800436000238360C36003610C22426183612A
:1009E800C36101F031FB00B908BDFFF709FEFBE761
:1009F800340100200010014008B50A480A4B036082
:100A08004FF4E133436000238360C36003610C2229
:100A180042618361C36101F017FB00B908BDFFF7AC
:100A2800EFFDFBE778010020001401402DE9F041BB
:100A38008AB0044600230593069307930893099305
:100A48000368584A934205D0574A934261D00AB086
:100A5800BDE8F08100250095544B5A6C42F0100215
:100A68005A645A6C02F010020092009A01951A6BAF
:100A780042F002021A631A6B02F002020192019A12
:100A880002951A6B42F001021A631B6B03F0010313
:100A98000293029B802305934FF00208CDF818803B
:100AA8000795032708970726099605A9404800F0E7
:100AB8001BFB4FF400730593CDF818800795089732
:100AC800099605A93B4800F00FFB3B483B4B0360E8
:100AD8004FF0006343608560C5604FF48063036135
:100AE80045618561C5614FF440330362456200F09A
:100AF800A7F958B9304BA3639C63002211462520FF
:100B080000F0DCF8252000F00DF9A0E7FFF778FDEC
:100B1800F0E700250395254B5A6C42F020025A64F1
:100B28005A6C02F020020392039A04951A6B42F061
:100B380040021A631B6B03F040030493049B4FF4B9
:100B480084430593022306930795032308930823F8
:100B5800099305A91A4800F0C7FA1A481A4B036006
:100B68004FF02063436040238360C5604FF4806387
:100B7800036145618561C5614FF440330362456295
:100B880000F05EF958B90F4B63639C63002211466D
:100B9800472000F093F8472000F0C4F857E7FFF724
:100BA8002FFDF0E70010014000140140003802401A
:100BB8000004024000000240D400002040640240CB
:100BC8000018024074000020A064024010B50446DA
:100BD8000E4B18784FF47A73B3FBF0F30C4A106895
:100BE800B0FBF3F000F0ACF868B90F2C01D9012084
:100BF8000AE0002221464FF0FF3000F05FF8054B75
:100C08001C60002000E0012010BD00BF040000208F
:100C1800000000200800002008B50B4B1A6842F4B9
:100C280000721A601A6842F480621A601A6842F404
:100C380080721A60032000F02FF80F20FFF7C6FF1C
:100C4800FFF7CEFD002008BD003C0240034A1168B2
:100C5800034B1B780B441360704700BFBC01002096
:100C680004000020014B1868704700BFBC01002039
:100C780038B50446FFF7F6FF0546B4F1FF3F02D04A
:100C8800044B1B781C44FFF7EDFF401BA042FAD32E
:100C980038BD00BF04000020074AD36823F4E0638E
:100CA8001B041B0C000200F4E060034343F0BF6325
:100CB80043F40033D360704700ED00E030B4174BC5
:100CC800DB68C3F30223C3F10704042C28BF042400
:100CD8001D1D062D18D9033B4FF0FF3505FA04F406
:100CE80021EA0401994005FA03F322EA03031943B0
:100CF80000280BDB0901C9B200F1604000F5614032
:100D080080F8001330BC70470023E5E700F00F00BF
:100D18000901C9B2024B1954F4E700BF00ED00E025
:100D280014ED00E0002807DB00F01F024009012352
:100D38009340024A42F82030704700BF00E100E0CB
:100D48000138B0F1807F0AD2064B5860064AF0217C
:100D580082F823100020986007221A60704701204B
:100D6800704700BF10E000E000ED00E010B4036839
:100D7800D9B210390C4AA2FB014212090B4CA25CF1
:100D8800C2655F2909D923F47F7323F00303043371
:100D98008365806D5DF8044B704723F47F7323F0FF
:100DA80003038365F5E700BFABAAAAAAC824000815
:100DB800836A826992B9012B0AD0022B02D00BB147
:100DC80000207047C36A13F0807F28D10020704745
:100DD800C36AB3F1C07F24D000207047B2F5005F2A
:100DE80009D0022B25D9032B25D1C36A13F0807FA4
:100DF80023D100207047032B03D8DFE803F0140445
:100E0800140A00207047C36A13F0807F0DD10020B8
:100E18007047C36AB3F1C07F09D000207047012032
:100E2800704701207047012070470120704701205A
:100E3800704701207047002070470120704700006C
:100E480070B50446FFF70EFF002C5BD00546022361
:100E580084F83530002384F834302268136823F08E
:100E68000103136023681A6812F0010F0AD0FFF714
:100E7800F9FE431B052BF5D920236365032084F86D
:100E8800350070BD1A68204810406168A2680A439E
:100E9800E1680A4321690A4361690A43A1690A436F
:100EA800E1690A43216A0A430243616A04291ED0A0
:100EB8001A602668756925F00705636A1D43042BC7
:100EC80007D1A36A1D43E36A1BB12046FFF770FFF1
:100ED80090B975612046FFF749FFE26D3F239340C3
:100EE800836000206065012384F83530C9E7E16A32
:100EF800206B01430A43DBE740236365012084F844
:100F08003500BEE70120BCE73F8010F0F0B583B0A4
:100F1800044600230193724B1D68724BA3FB0535F1
:100F2800AD0A876D3E68C26D08239340334210D0E6
:100F380003681A6812F0040F0BD01A6822F0040232
:100F48001A60C26D08239340BB60436D43F00103F0
:100F58004365E26D01239340334209D02268526908
:100F680012F0800F04D0BB60636D43F00203636529
:100F7800E26D04239340334209D02268126812F0CC
:100F8800020F04D0BB60636D43F004036365E26D38
:100F980010239340334224D02268126812F0080FBD
:100FA8001FD0BB6023681A6812F4802F0DD01B680D
:100FB80013F4002F04D1236C9BB12046984710E00E
:100FC800A36C73B1204698470BE01A6812F4807F2F
:100FD80003D11A6822F008021A60236C0BB120466C
:100FE8009847E26D20239340334255D02268126817
:100FF80012F0100F50D0BB6094F83530DBB2052BDF
:101008000ED023681A6812F4802F33D01B6813F4AB
:10101800002F2AD1636C002B3ED0204698473BE036
:101028002268136823F0160313602268536923F0BB
:1010380080035361236CA3B12268136823F008036B
:101048001360E26D3F239340BB60012384F8353081
:10105800002384F83430236D002B3FD02046984776
:101068003CE0A36C002BE7D1EBE7E36BA3B1204690
:10107800984711E01A6812F4807F09D11A6822F0A3
:1010880010021A60012384F83530002384F83430C4
:10109800E36B0BB120469847636DFBB1636D13F0AA
:1010A800010F17D0052384F835302268136823F020
:1010B80001031360019B01330193AB4204D82368F9
:1010C8001B6813F0010FF5D1012384F83530002394
:1010D80084F83430E36C0BB12046984703B0F0BD78
:1010E80000000020B5814E1B00230F2B00F2DD808D
:1010F800F0B482B05DE086685F000324BC4026EA55
:101108000406CC68BC4034438460466826EA02067C
:101118004C68C4F300129A403243426057E0DC083E
:10112800083450F8247003F0070296000F22B240EA
:1011380027EA02070A69B2403A4340F824205AE0F5
:10114800072200E00022B2403A430234574E46F8E4
:101158002420574A9468EA4324EA05064F6817F49E
:10116800801F01D045EA0406514CA660E46802EAF3
:1011780004064F6817F4001F01D045EA04064C4CDA
:10118800E660646802EA04064F6817F4003F01D07D
:1011980045EA0406464C6660246822404E6816F408
:1011A800803F01D045EA0402414C226001330F2BF5
:1011B80078D801229A400C6804EA020532EA04044D
:1011C800F4D14C6804F00304013C012C93D94A681B
:1011D80002F00302032A09D0C4685E000322B24069
:1011E80024EA02048A68B2402243C2604A6802F0D4
:1011F8000302022A93D004685E000322B24024EA64
:1012080002044A6802F00302B240224302604A68BC
:1012180012F4403FCAD000220192264A546C44F48A
:1012280080445464526C02F480420192019A9C08F2
:10123800A61C1E4A52F8267003F0030296000F22DD
:10124800B24027EA02071C4A90423FF47BAF02F5FE
:10125800806290421AD002F58062904218D002F55E
:101268008062904216D002F58062904214D002F556
:101278008062904212D002F58062904210D002F54E
:10128800806290423FF45CAF08225CE701225AE793
:10129800022258E7032256E7042254E7052252E7C0
:1012A800062250E702B0F0BC704770470038014092
:1012B800003C014000380240000002400369194226
:1012C80001D001207047002070470000002800F07E
:1012D800DF8170B582B00446036813F0010F3BD07C
:1012E800A64B9B6803F00C03042B2CD0A34B9B68E4
:1012F80003F00C03082B21D06368B3F5803F4FD06F
:10130800B3F5A02F52D09D4B1A6822F480321A6090
:101318001A6822F480221A606368002B50D0FFF705
:10132800A1FC0546954B1B6813F4003F14D1FFF749
:1013380099FC401B6428F5D90320B0E18F4B5B680A
:1013480013F4800FD8D08D4B1B6813F4003F03D0E3
:101358006368002B00F09E81236813F0020F54D0BD
:10136800864B9B6813F00C0F3ED0844B9B6803F0B0
:101378000C03082B33D0E368002B67D0804B012285
:101388001A60FFF76FFC05467C4B1B6813F0020FD1
:1013980053D1FFF767FC401B0228F5D903207EE1F3
:1013A800764A136843F480331360B5E7734B1A68C1
:1013B80042F480221A601A6842F480321A60ABE75D
:1013C800FFF750FC05466D4B1B6813F4003FC3D074
:1013D800FFF748FC401B6428F5D903205FE1674B01
:1013E8005B6813F4800FC6D1644B1B6813F0020FBF
:1013F80003D0E368012B40F04F81604A136823F063
:10140800F803216943EAC1031360236813F0080F46
:1014180040D0636963B35B4B01221A60FFF722FC7B
:101428000546564B5B6F13F0020F33D1FFF71AFCDA
:10143800401B0228F5D9032031E1504A136823F0F4
:10144800F803216943EAC1031360DEE74C4B00222D
:101458001A60FFF707FC0546484B1B6813F0020F9C
:10146800D3D0FFF7FFFB401B0228F5D9032016E174
:10147800444B00221A60FFF7F5FB05463F4B5B6FB4
:1014880013F0020F06D0FFF7EDFB401B0228F5D939
:10149800032004E1236813F0040F78D0374B1B6C4A
:1014A80013F0805F0DD100230193344B1A6C42F086
:1014B80080521A641B6C03F080530193019B012531
:1014C80000E00025304B1B6813F4807F21D0A3680F
:1014D800012B32D0052B36D0284B1A6F22F001028F
:1014E8001A671A6F22F004021A67A368002B34D017
:1014F800FFF7B8FB0646214B1B6F13F0020F45D1CF
:10150800FFF7B0FB801B41F288339842F3D90320E0
:10151800C5E01D4A136843F480731360FFF7A2FB0C
:101528000646194B1B6813F4807FD0D1FFF79AFB4E
:10153800801B0228F5D90320B1E0104A136F43F04D
:1015480001031367D1E70D4B1A6F42F004021A67C3
:101558001A6F42F001021A67C7E7FFF783FB0646D6
:10156800064B1B6F13F0020F10D0FFF77BFB801B9D
:1015780041F288339842F3D9032090E000380240C2
:1015880000004742800E474200700040EDB9A36951
:10159800002B00F08380494A926802F00C02082A66
:1015A80051D0022B17D0464B00221A60FFF75AFB86
:1015B8000446424B1B6813F0007F42D0FFF752FBF2
:1015C800001B0228F5D9032069E03C4A136C23F07C
:1015D80080531364DBE73A4B00221A60FFF742FBA3
:1015E8000546364B1B6813F0007F06D0FFF73AFB21
:1015F800401B0228F5D9032051E0E369226A13430E
:10160800626A43EA8213A26A5208013A43EA024331
:10161800E26A43EA0263294A5360294B01221A60AD
:10162800FFF720FB0446254B1B6813F0007F06D10B
:10163800FFF718FB001B0228F5D903202FE0002034
:101648002DE000202BE0012B2BD01C4B5B6803F412
:101658008001E269914226D103F03F02216A8A4261
:1016680023D1616A47F6C0721A40B2EB811F1ED1BE
:1016780003F44031A26A5208013AB1EB024F18D183
:1016880003F07063E26AB3EB026F14D1002006E046
:1016980001207047012002E0012000E0002002B094
:1016A80070BD0120FBE70120F9E70120F7E70120E1
:1016B800F5E70120F3E70120F1E700BF0038024019
:1016C80060004742F8B5244B9B6803F00C03042BD9
:1016D8003DD0082B3DD1204B5A6802F03F025B6891
:1016E80013F4800F12D01C4B5968C1F388110023E2
:1016F8001A48A1FB0001FEF763FD174B5B68C3F3B3
:10170800014301335B00B0FBF3F023E0124B5B684D
:10171800C3F388135C010025E41A65F10005AE01E6
:1017280046EA9466A701381B66EB0501CC0044EA3B
:101738005074C500E81844F100018B0243EA905345
:101748008402204619460023FEF73AFDD5E70348F0
:1017580000E00348F8BD00BF00380240001BB70096
:101768000024F400002800F09B8070B50D46044664
:101778004F4B1B6803F007038B4208D2CBB24C4A8D
:101788001370136803F007038B4240F08B802368C3
:1017980013F0020F17D013F0040F04D0454A9368D2
:1017A80043F4E0539360236813F0080F04D0414AD0
:1017B800936843F4604393603E4A936823F0F003D0
:1017C800A1680B439360236813F0010F32D063685C
:1017D800012B21D09A1E012A25D9364A126812F007
:1017E800020F61D033498A6822F0030213438B60E9
:1017F800FFF738FA06462F4B9B6803F00C03626824
:10180800B3EB820F16D0FFF72DFA801B41F2883315
:101818009842F0D9032042E0264A126812F4003FA9
:10182800E0D101203BE0234A126812F0007FD9D1B1
:10183800012034E01E4B1B6803F00703AB4207D9B5
:10184800EAB21B4B1A701B6803F00703AB422DD199
:10185800236813F0040F06D0164A936823F4E05364
:10186800E1680B439360236813F0080F07D0114A0F
:10187800936823F46043216943EAC1039360FFF747
:1018880021FF0C4B9B68C3F303130B4AD35CD8406E
:101898000A4B18600A4B1868FFF798F9002070BDCA
:1018A800012070470120FAE70120F8E70120F6E758
:1018B800003C024000380240B0240008000000202C
:1018C80008000020014B1868704700BF0000002086
:1018D80008B5FFF7F7FF044B9B68C3F38223034A5D
:1018E800D35CD84008BD00BF00380240C0240008BF
:1018F80008B5FFF7E7FF044B9B68C3F34233034A7D
:10190800D35CD84008BD00BF00380240C02400089E
:1019180030B4036A23F001030362056A42688469EC
:1019280024F073040B681C4325F002058B682B43D5
:10193800104DA84203D005F58065A84205D123F0D3
:101948000803CD682B4323F004030A4DA84203D0B3
:1019580005F58065A84205D122F440724D6915430A
:101968008A692A43426084614A684263036230BCE0
:10197800704700BF0000014030B4036A23F480734D
:101988000362036A4268C46924F073040D682C4337
:1019980023F400738D6843EA0523124DA84203D04F
:1019A80005F58065A84206D123F40063CD6843EAB3
:1019B800052323F480630B4DA84203D005F5806509
:1019C800A84207D122F440524D6942EA05128D69B6
:1019D80042EA05124260C4614A68C263036230BCCD
:1019E800704700BF0000014030B4036A23F48053FD
:1019F8000362036A4468C26922F4E6420D6842EA57
:101A0800052223F400538D6843EA0533094DA842A3
:101A180003D005F58065A84204D124F480444D69BB
:101A280044EA85144460C2614A680264036230BCB7
:101A3800704700BF000001400368304A904212D04E
:101A4800B0F1804F0FD0A2F57C4290420BD002F546
:101A58008062904207D002F58062904203D002F57E
:101A68007842904203D123F070034A681343234A13
:101A780090422AD0B0F1804F27D0A2F57C42904204
:101A880023D002F5806290421FD002F58062904216
:101A98001BD002F57842904217D002F5705290425E
:101AA80013D002F5806290420FD002F58062904216
:101AB8000BD0A2F59832904207D002F5806290428E
:101AC80003D002F58062904203D123F44073CA68C0
:101AD800134323F080034A69134303608B68C3628E
:101AE8000B688362054B984203D003F580639842E4
:101AF80001D10B6903630123436170470000014072
:101B080040B310B5044690F83D30F3B1022384F891
:101B18003D30214651F8040BFFF78EFF012384F86E
:101B2800463084F83E3084F83F3084F8403084F8FA
:101B3800413084F8423084F8433084F8443084F8E3
:101B4800453084F83D30002010BD80F83C30FEF769
:101B580089FEDBE70120704730B4036A23F01003E5
:101B68000362036A4468826922F4E6420D6842EA25
:101B7800052223F020038D6843EA0513114DA8427E
:101B880003D005F58065A84206D123F08003CD680F
:101B980043EA051323F040030A4DA84203D005F594
:101BA8008065A84207D124F440644D6944EA85045D
:101BB8008D6944EA8504446082614A6882630362ED
:101BC80030BC70470000014038B590F83C30012B1C
:101BD80066D004460D46012380F83C300C2A5AD8BA
:101BE800DFE802F0075959591B59595930595959C1
:101BF80044000068FFF78CFE2268936943F00803ED
:101C080093612268936923F00403936122689369BE
:101C180029690B43936100203EE00068FFF79CFFB1
:101C28002268936943F4006393612268936923F4FB
:101C38008063936122689369296943EA0123936168
:101C4800002029E00068FFF797FE2268D36943F077
:101C58000803D3612268D36923F00403D36122689F
:101C6800D36929690B43D361002015E00068FFF7A9
:101C7800BBFE2268D36943F40063D3612268D36949
:101C880023F48063D3612268D369296943EA012375
:101C9800D361002000E00120002384F83C3038BDE7
:101CA8000220FCE710B401F01F01012303FA01F43C
:101CB800036A23EA04030362036A02FA01F10B438D
:101CC80003625DF8044B704710B5044608460029C6
:101CD80042D194F83E30DBB2013B18BF0123002B00
:101CE8006ED1002851D1022384F83E3001220146EA
:101CF8002068FFF7D7FF2368334A934203D002F5E1
:101D08008062934203D15A6C42F400425A642368B9
:101D18002D4A934249D0B3F1804F46D0A2F57C4278
:101D2800934242D002F5806293423ED002F580622F
:101D380093423AD002F57842934236D002F5705277
:101D4800934232D0A2F5943293422ED01A6842F0D0
:101D580001021A60002032E0042908D008290DD0B9
:101D680094F84130DBB2013B18BF0123B7E794F880
:101D78003F30DBB2013B18BF0123B0E794F8403095
:101D8800DBB2013B18BF0123A9E7042805D00828C6
:101D980007D0022384F84130A8E7022384F83F30B3
:101DA800A4E7022384F84030A0E79A6802F007020B
:101DB800062A07D01A6842F001021A60002010BDF6
:101DC8000120FCE70020FAE70000014090F83C30D1
:101DD800012B3BD030B4012380F83C30022380F83B
:101DE8003D3003685C689D6824F070040A682243EB
:101DF8005A600368164A93421AD0B3F1804F17D03D
:101E0800A2F57C42934213D002F5806293420FD030
:101E180002F5806293420BD002F57842934207D0D4
:101E280002F57052934203D0A2F59432934204D142
:101E380025F080054A6815439D60012380F83D30F0
:101E4800002380F83C30184630BC704702207047A9
:101E58000000014090F83C30012B22D0012380F88B
:101E68003C30CB6823F440738A68134323F48063BF
:101E78004A68134323F400630A68134323F4805326
:101E88000A69134323F400534A69134323F4804334
:101E9800CA69134302685364002380F83C3018462B
:101EA800704702207047000070B504460268136945
:101EB80023F44053C1680B431361836802691343D9
:101EC80042691343C2691A430168CB6823F4164375
:101ED80023F00C031343CB600268536923F4407367
:101EE80081690B4353610368344A934206D002F573
:101EF8008062934202D0FFF7EBFC01E0FFF7F8FCA9
:101F0800E369B3F5004F2AD00026051846EB060111
:101F18002D1846EB0101CB0043EA5573EA0015463C
:101F2800194663689A009B0F281846EB0101FEF7D3
:101F380047F9234DA5FB00325109642303FB110324
:101F48001B013233A5FB03235B0903F0F00202EB0C
:101F5800011203F00F03216813448B6070BD002643
:101F6800051846EB06012D1846EB0101CB0043EAA4
:101F78005573EA001546194662683346921846EBCF
:101F88000303281846EB0101FEF71AF90C4DA5FBCF
:101F980000325109642303FB1103DB003233A5FB34
:101FA80003235B095A0002F4F87202EB011203F0F2
:101FB8000703216813448B60D0E700BF001001407D
:101FC8001F85EB512DE9F84305460F4616469946FD
:101FD800DDF820802C68246837EA04030CBF01244C
:101FE8000024B4422DD1B8F1FF3FF3D0B8F1000F6F
:101FF80005D0FEF737FEA0EB09004045EAD92A686C
:1020080002F10C0353E8003F23F4D0730C3242E88A
:1020180000310029F3D12A6802F1140353E8003F84
:1020280023F00103143242E800310029F3D12023C0
:1020380085F83D3085F83E30002385F83C30032094
:1020480000E00020BDE8F88358B310B5044690F8C6
:102058003D300BB3242384F83D302268D36823F441
:102068000053D3602046FFF71FFF2268136923F44B
:10207800904313612268536923F02A03536122684D
:10208800D36843F40053D36000202064202384F8ED
:102098003D3084F83E3010BD80F83C30FEF7C6FC79
:1020A800D8E7012070472DE9F04182B01E4690F82C
:1020B8003D30DBB2202B54D104460D469046002912
:1020C80053D0002A53D090F83C30012B51D0012333
:1020D80080F83C3000230364212380F83D30FEF76C
:1020E800C1FD0746A4F82480A4F82680A368B3F5A8
:1020F800805F05D04FF00008002384F83C3012E0E0
:10210800236913B14FF00008F6E7A8460025F3E766
:1021180038F8023B2268C3F308035360E28C92B29A
:10212800013A92B2E284E38C9BB273B100963B46CB
:10213800002280212046FFF745FFE0B9002DE7D0B7
:1021480015F8012B23685A60E8E700963B46002201
:1021580040212046FFF736FF78B9202384F83D3028
:1021680000E0022002B0BDE8F0810120FAE701207A
:10217800F8E70220F6E70320F4E70320F2E730B49B
:1021880005686C6944F040046C610568EC6844F0CB
:102198001004EC60846B25682C6824F001042C6022
:1021A8000C68256815F0010F06D0846B25682C682B
:1021B80024F001042C60F3E705680435A5600C6879
:1021C800E2600A6813610B68BDF808205A600A6863
:1021D800136843F480231360836B1A68136843F011
:1021E8000103136030BC704700B585B0FF238DF83C
:1021F8000430FCEEC07A17EE903A9BB28DF80530A9
:102208001B0A8DF80630FCEEE07A17EE903A9BB286
:102218008DF807301B0A8DF80830FCEEC17A17EEEE
:10222800903A9BB28DF809301B0A8DF80A3030EECF
:10223800200A30EE010ABCEEC00A10EE103A9BB23A
:102248008DF80B301B0A8DF80C300A228DF80D2002
:10225800642301A90248FFF726FF05B05DF804FBD7
:10226800780100200C4B1B78A3B900B583B00B4B49
:102278005E220092A3F15E0209490A48FFF77FFF38
:102288006420FEF7F5FC044B1B78002BEFD003B05D
:102298005DF804FB704700BF2A00002052020020AE
:1022A800D40000203401002000229FED177AB0EE00
:1022B800470A0B2A24DCF0B4941C04EB44040D19DF
:1022C8006F780B5D00EB820643EA072320F8223083
:1022D800AC78B47003FB04F307EE903AF8EEE77AB3
:1022E80030EE270A07EE904AF8EEE77A37EE277ABB
:1022F800013252B20B2ADFDD80EE070AF0BC7047CC
:1023080087EE070A704700BF0000000000B583B0E1
:102318002B4B1B681A6812F0200F09D0002200927C
:102328001A6800925B680093009B03B05DF804FB99
:102338001A6812F0100FF8D0002201921A68019260
:102348005B680193019B1F4B1A685368C3F15E03D6
:102358009BB21D490B805E215160116811F4002F5A
:1023680016D1116841F400211160164A11680A68F3
:1023780042F001020A602F2BD7D114491448FFF705
:1023880093FF144B83ED000A134B01221A70CCE71C
:10239800124A136823F4002313600A4B1A6813685F
:1023A80043F001031360084B1B882F2BBDD10C4948
:1023B8000748FFF779FF074B83ED000AB5E700BF31
:1023C80034010020D400002028000020F40100205F
:1023D800C4010020C00100202A00002040640240FF
:1023E80052020020DFF834D00D480E490E4A00236F
:1023F80002E0D458C4500433C4188C42F9D30B4AB1
:102408000B4C002301E013600432A242FBD3FEF719
:102418001FFA00F011F8FEF749F970470000022092
:10242800000000200C000020E02400080C00002020
:10243800B0020020FEE7000070B50D4D0D4C641B86
:10244800A4100026A64209D10B4D0C4C00F020F830
:10245800641BA4100026A64205D170BD55F8043BA4
:1024680098470136EEE755F8043B98470136F2E7FE
:10247800D8240008D8240008D8240008DC24000840
:1024880002440346934200D1704703F8011BF9E761
:10249800F8B500BFF8BC08BC9E467047F8B500BF49
:0824A800F8BC08BC9E46704719
:1024B00000000000000000000102030406070809F4
:1024C00000000000010203040006101600061016AA
:0824D00028DDFF7F0100000080
:0424D800AD0100084A
:0424DC00890100086A
:0C24E0000024F4000100000010000000C7
:04000005080023EDDF
:00000001FF
