:020000040800F2
:1000000000000220692400084D0700084F0700087F
:1000100051070008530700085507000800000000BA
:10002000000000000000000000000000570700086A
:1000300059070008000000005B0700085D07000882
:10004000B9240008B9240008B9240008B92400081C
:10005000B9240008B9240008B9240008B92400080C
:10006000B9240008B9240008B9240008B9240008FC
:10007000B9240008B9240008B9240008B9240008EC
:10008000B9240008B9240008B9240008B9240008DC
:10009000B9240008B9240008B9240008B9240008CC
:1000A000B9240008B9240008B9240008B9240008BC
:1000B000B9240008B9240008B9240008B9240008AC
:1000C000B9240008B9240008B9240008B92400089C
:1000D000B924000865070008B9240008B9240008FD
:1000E000B9240008B9240008B9240008B92400087C
:1000F000B9240008B9240008B9240008B92400086C
:10010000B9240008B9240008B9240008B92400085B
:10011000B9240008B9240008B9240008B92400084B
:10012000B9240008B924000875070008B92400089C
:10013000B9240008B9240008B9240008B92400082B
:10014000B9240008B9240008B9240008B92400081B
:10015000B924000885070008B9240008B92400085C
:10016000B9240008B9240008B9240008B9240008FB
:10017000B9240008B9240008B924000800000000D0
:08018000B9240008B9240008AD
:1001880010B5054C237833B9044B13B10448AFF3C9
:1001980000800123237010BD0C0000200000000027
:1001A8001425000808B5034B1BB103490348AFF3F6
:1001B800008008BD00000000100000201425000881
:1001C80053B94AB9002908BF00281CBF4FF0FF31B6
:1001D8004FF0FF3000F06EB9ADF1080C6DE904CEB8
:1001E80000F006F8DDF804E0DDE9022304B070470A
:1001F8002DE9F047089D04468C46002B40F083808B
:100208008A42174647D9B2FA82F242B1C2F12000B7
:1002180024FA00F09140974040EA010C94404FEADC
:100228001748230CBCFBF8F61FFA87FE08FB16C11B
:1002380043EA014306FB0EF1994209D9FB1806F17E
:10024800FF3080F01981994240F21681023E3B440A
:100258005B1AA4B2B3FBF8F008FB103344EA03447A
:1002680000FB0EFEA64509D93C1900F1FF3380F0CA
:100278000581A64540F2028102383C4440EA064026
:10028800A4EB0E0400261DB1D4400023C5E90043A9
:100298003146BDE8F08702B9FFDEB2FA82F2002AE1
:1002A80050D1CB1B4FEA174E1FFA87F80126B3FB34
:1002B800FEFC210C0EFB1C3341EA034108FB0CF346
:1002C8008B4207D979180CF1FF3002D28B4200F229
:1002D800E9808446C91AA3B2B1FBFEF00EFB1011E7
:1002E80043EA014408FB00F8A04507D93C1900F18E
:1002F800FF3302D2A04500F2D9801846A4EB0804C7
:1003080040EA0C40BFE78B4209D9002D00F0B180CC
:100318000026C5E9000130463146BDE8F087B3FA4A
:1003280083F6002E4AD18B4202D3824200F2B88073
:10033800841A61EB030101208C46002DA8D0C5E981
:10034800004CA5E7C2F1200320FA03F6974001FA12
:1003580002F04FEA174ED9403043030CB1FBFEF6CA
:100368001FFA87F80EFB161143EA014306FB08F152
:10037800994204FA02F409D9FB1806F1FF3C80F00F
:100388008D80994240F28A80023E3B445B1A81B2DA
:10039800B3FBFEF00EFB103341EA034100FB08F308
:1003A8008B4207D9791800F1FF3C73D28B4271D97F
:1003B80002383944CB1A40EA064678E7C6F1200CE1
:1003C80003FA06F422FA0CF31C4320FA0CF701FA9C
:1003D80006F34FEA144E21FA0CF11F433B0CB1FB14
:1003E800FEF91FFA84F80EFB191143EA014109FBD3
:1003F80008FA8A4502FA06F200FA06F308D96118E3
:1004080009F1FF3048D28A4546D9A9F102092144A9
:10041800A1EB0A01BFB2B1FBFEF00EFB101147EAD7
:10042800014700FB08F8B84507D9E71900F1FF3183
:100438002ED2B8452CD90238274440EA0940A7EB08
:100448000807A0FB02894F45C64649461AD317D06C
:100458005DB1B3EB0E0267EB010707FA0CFCF24043
:100468004CEA0202F740C5E9002700263146BDE8FC
:10047800F0872E4628460BE70646E9E61846FDE6CD
:100488004345E5D2B8EB020E69EB04010138DFE71A
:100498000846D2E760468DE78146B9E7664675E7C4
:1004A80030464AE7ACF1020C394413E702383C44C1
:1004B80024E700BF704700BF10B582B00024019444
:1004C8000D4B1A6B42F480021A631B6B03F4800312
:1004D8000193019B224621463A2000F08DFB3A20E9
:1004E80000F0BEFB22462146452000F085FB452052
:1004F80000F0B6FB02B010BD0038024086B0002202
:1005080001921A4B196B41F040011963196B01F004
:100518004001019101990292196B41F0010119639F
:10052800196B01F00101029102990392196B41F0D4
:1005380002011963196B01F00201039103990492F6
:10054800196B41F480711963196B01F4807104917E
:10055800049905921A6B42F080021A631B6B03F030
:1005680080030593059B06B0704700BF0038024022
:1005780072B6FEE700B595B03022002108A801F058
:10058800BDFF0023039304930593069307930193F8
:10059800204A116C41F080511164126C02F08052B3
:1005A8000192019A02931C4B1A6842F480421A6025
:1005B8001B6803F480430293029B012308934FF4C2
:1005C8008033099302230E934FF480020F92062280
:1005D8001092A822119212930423139308A800F0F2
:1005E80069FE98B90F23039302230493002305930C
:1005F8004FF4A05306934FF480530793052103A8A3
:1006080001F0A4F820B915B05DF804FBFFF7B0FFBE
:10061800FFF7AEFF003802400070004010B52DED26
:10062800028B00F097FAFFF7A5FFFFF767FFFFF7C8
:1006380043FF00F0FDF800F07DF900F061F92D4C62
:100648000421204601F034FB0821204601F030FB4C
:100658004DE0DFED297A68EE277A9FED287A77EE6C
:10066800877A244B1B68FCEEE77AC3ED0F7A4FF4C8
:10067800FA7000F09BFA224B93ED001AF0EE480A4C
:10068800B0EE680A01F0EAFE4FF4FA7000F08EFA54
:10069800F0EE007A38EE278ADFED1A7AB4EEE78AB0
:1006A800F1EE10FAD5D9F0EE007A78EEA78ADFEDF0
:1006B800157AF4EEE78AF1EE10FA14D8DFED0E7A27
:1006C80068EEA77A9FED0D7A77EE877A094B1B685B
:1006D800FCEEE77AC3ED0E7A4FF4FA7000F066FA92
:1006E8009FED098AD8E74FF47A7000F05FFADFEDE2
:1006F800068ADCE7280000207B09ED400000FA4369
:10070800BC010020000002430000B44282B0002176
:1007180000910B4B5A6C42F480425A645A6C02F4B2
:1007280080420092009A01911A6C42F080521A6439
:100738001B6C03F080530193019B02B0704700BF0C
:1007480000380240FEE7FEE7FEE7FEE7FEE77047F7
:100758007047704708B500F017FA08BD08B5024899
:1007680001F03CFD08BD00BF3001002008B502487B
:1007780000F0C8FB08BD00BFD000002008B5024843
:1007880000F0C0FB08BD00BF70000020034AD2F88B
:10079800883043F47003C2F88830704700ED00E0F9
:1007A8000268094B9A4200D0704782B00023019337
:1007B800064B5A6C42F002025A645B6C03F0020367
:1007C8000193019B02B070470004014000380240C9
:1007D80000B587B000230193029303930493059314
:1007E800026803F1804303F582339A4202D007B0CE
:1007F8005DF804FB002300930B4A116B41F48071F0
:100808001163126B02F480720092009AC022019266
:1008180002220292039304930323059301A9034838
:1008280000F05EFCE3E700BF003802400020024011
:1008380010B592B000241094119409940A940B9462
:100848000C940D940E940F942022214601A801F0D7
:1008580055FE2948294B0360A7234360846044F66A
:100868001F63C36004614461846101F03DF900289D
:1008780033D100231093119310A91F4801F09AFA5D
:1008880000282DD1602309934FF4FA730A930023AB
:100898000B930C930D930E930F93042209A91648FA
:1008A80001F086F9F8B9082209A9134801F080F97E
:1008B800E0B90023019302930393049305934FF443
:1008C80000520692089301A90B4801F0B7FA80B9C3
:1008D8000948FFF77DFF12B010BDFFF749FEC8E7D2
:1008E800FFF746FECEE7FFF743FEDCE7FFF740FEE3
:1008F800DFE7FFF73DFEEBE728000020000401409A
:1009080008B50A480A4B03604FF46123436000238B
:100918008360C36003610C2242618361C36101F09B
:10092800A3FB00B908BDFFF723FEFBE73001002059
:100938000010014008B50A480A4B03604FF4E13340
:10094800436000238360C36003610C2242618361BA
:10095800C36101F089FB00B908BDFFF709FEFBE799
:1009680074010020001401402DE9F0418AB00446CA
:100978000023059306930793089309930368584A3D
:10098800934205D0574A934261D00AB0BDE8F0813E
:1009980000250095544B5A6C42F010025A645A6C68
:1009A80002F010020092009A01951A6B42F00202BE
:1009B8001A631A6B02F002020192019A02951A6BED
:1009C80042F001021A631B6B03F001030293029BBE
:1009D800802305934FF00208CDF818800795032768
:1009E80008970726099605A9404800F079FB4FF4B7
:1009F80000730593CDF8188007950897099605A9FF
:100A08003B4800F06DFB3B483B4B03604FF00063F5
:100A180043608560C5604FF480630361456185610B
:100A2800C5614FF440330362456200F0A7F958B935
:100A3800304BA3639C6300221146252000F0DCF8AC
:100A4800252000F00DF9A0E7FFF792FDF0E700255B
:100A58000395254B5A6C42F020025A645A6C02F0F6
:100A680020020392039A04951A6B42F040021A631B
:100A78001B6B03F040030493049B4FF484430593DA
:100A8800022306930795032308930823099305A9CE
:100A98001A4800F025FB1A481A4B03604FF02063F0
:100AA800436040238360C5604FF480630361456100
:100AB8008561C5614FF440330362456200F05EF919
:100AC80058B90F4B63639C6300221146472000F01E
:100AD80093F8472000F0C4F857E7FFF749FDF0E71F
:100AE8000010014000140140003802400004024098
:100AF80000000240D000002040640240001802407C
:100B080070000020A064024010B504460E4B18780F
:100B18004FF47A73B3FBF0F30C4A1068B0FBF3F0B0
:100B280000F0ACF868B90F2C01D901200AE00022C6
:100B380021464FF0FF3000F05FF8054B1C600020A5
:100B480000E0012010BD00BF0400002000000020CC
:100B58000800002008B50B4B1A6842F400721A60AE
:100B68001A6842F480621A601A6842F480721A6045
:100B7800032000F02FF80F20FFF7C6FFFFF7C6FD90
:100B8800002008BD003C0240034A1168034B1B7853
:100B98000B441360704700BFB80100200400002018
:100BA800014B1868704700BFB801002038B50446EB
:100BB800FFF7F6FF0546B4F1FF3F02D0044B1B7860
:100BC8001C44FFF7EDFF401BA042FAD338BD00BF1D
:100BD80004000020074AD36823F4E0631B041B0CBD
:100BE800000200F4E060034343F0BF6343F40033C2
:100BF800D360704700ED00E030B4174BDB68C3F3F7
:100C08000223C3F10704042C28BF04241D1D062D4C
:100C180018D9033B4FF0FF3505FA04F421EA040123
:100C2800994005FA03F322EA0303194300280BDB72
:100C38000901C9B200F1604000F5614080F8001375
:100C480030BC70470023E5E700F00F000901C9B286
:100C5800024B1954F4E700BF00ED00E014ED00E08A
:100C6800002807DB00F01F02400901239340024AD5
:100C780042F82030704700BF00E100E00138B0F1D1
:100C8800807F0AD2064B5860064AF02182F823106A
:100C98000020986007221A6070470120704700BF43
:100CA80010E000E000ED00E010B40368D9B210399C
:100CB8000C4AA2FB014212090B4CA25CC2655F29D7
:100CC80009D923F47F7323F0030304338365806D0C
:100CD8005DF8044B704723F47F7323F003038365A7
:100CE800F5E700BFABAAAAAA44250008836A82696F
:100CF80092B9012B0AD0022B02D00BB10020704709
:100D0800C36A13F0807F28D100207047C36AB3F10B
:100D1800C07F24D000207047B2F5005F09D0022BB5
:100D280025D9032B25D1C36A13F0807F23D1002056
:100D38007047032B03D8DFE803F01404140A0020DB
:100D48007047C36A13F0807F0DD100207047C36AD3
:100D5800B3F1C07F09D000207047012070470120FF
:100D6800704701207047012070470120704701201B
:100D780070470020704701207047000070B5044696
:100D8800FFF70EFF002C5BD00546022384F83530B0
:100D9800002384F834302268136823F001031360B9
:100DA80023681A6812F0010F0AD0FFF7F9FE431BF7
:100DB800052BF5D920236365032084F8350070BD21
:100DC8001A68204810406168A2680A43E1680A432B
:100DD80021690A4361690A43A1690A43E1690A432F
:100DE800216A0A430243616A04291ED01A602668F0
:100DF800756925F00705636A1D43042B07D1A36AAB
:100E08001D43E36A1BB12046FFF770FF90B9756177
:100E18002046FFF749FFE26D3F239340836000209F
:100E28006065012384F83530C9E7E16A206B014326
:100E38000A43DBE740236365012084F83500BEE7F9
:100E48000120BCE73F8010F070B50446866DFFF7BF
:100E5800A7FE94F83530DBB2022B06D080236365F9
:100E6800002384F83430012070BD054622681368D9
:100E780023F0160313602268536923F0800353613B
:100E8800236CE3B12268136823F008031360226817
:100E9800136823F00103136023681B6813F0010F24
:100EA80011D0FFF77DFE431B052BF5D92023636581
:100EB800032084F83500002384F83430D4E7A36C89
:100EC800002BDFD1E3E7E26D3F239340B3600123BA
:100ED80084F83530002084F83400C5E790F83530C0
:100EE800DBB2022B03D08023436501207047052322
:100EF80080F835300268136823F00103136000207E
:100F080070470000F0B583B0044600230193724B8C
:100F18001D68724BA3FB0535AD0A876D3E68C26D2F
:100F280008239340334210D003681A6812F0040F64
:100F38000BD01A6822F004021A60C26D082393408D
:100F4800BB60436D43F001034365E26D01239340A9
:100F5800334209D02268526912F0800F04D0BB6076
:100F6800636D43F002036365E26D042393403342EB
:100F780009D02268126812F0020F04D0BB60636DBA
:100F880043F004036365E26D10239340334224D099
:100F98002268126812F0080F1FD0BB6023681A6815
:100FA80012F4802F0DD01B6813F4002F04D1236C8A
:100FB8009BB12046984710E0A36C73B12046984730
:100FC8000BE01A6812F4807F03D11A6822F0080235
:100FD8001A60236C0BB120469847E26D202393409A
:100FE800334255D02268126812F0100F50D0BB60FF
:100FF80094F83530DBB2052B0ED023681A6812F44A
:10100800802F33D01B6813F4002F2AD1636C002B78
:101018003ED0204698473BE02268136823F0160329
:1010280013602268536923F080035361236CA3B1D2
:101038002268136823F008031360E26D3F2393408E
:10104800BB60012384F83530002384F83430236DE5
:10105800002B3FD0204698473CE0A36C002BE7D1FB
:10106800EBE7E36BA3B12046984711E01A6812F446
:10107800807F09D11A6822F010021A60012384F8CF
:101088003530002384F83430E36B0BB120469847A1
:10109800636DFBB1636D13F0010F17D0052384F85E
:1010A80035302268136823F001031360019B013374
:1010B8000193AB4204D823681B6813F0010FF5D1E4
:1010C800012384F83530002384F83430E36C0BB105
:1010D8002046984703B0F0BD00000020B5814E1BA4
:1010E80000230F2B00F2DD80F0B482B05DE086684B
:1010F8005F000324BC4026EA0406CC68BC403443A5
:101108008460466826EA02064C68C4F300129A40D6
:101118003243426057E0DC08083450F8247003F08A
:10112800070296000F22B24027EA02070A69B24076
:101138003A4340F824205AE0072200E00022B24057
:101148003A430234574E46F82420574A9468EA43F3
:1011580024EA05064F6817F4801F01D045EA040603
:10116800514CA660E46802EA04064F6817F4001FB1
:1011780001D045EA04064C4CE660646802EA0406BD
:101188004F6817F4003F01D045EA0406464C6660F4
:10119800246822404E6816F4803F01D045EA0402D4
:1011A800414C226001330F2B78D801229A400C68F9
:1011B80004EA020532EA0404F4D14C6804F003049A
:1011C800013C012C93D94A6802F00302032A09D092
:1011D800C4685E000322B24024EA02048A68B2406E
:1011E8002243C2604A6802F00302022A93D00468CC
:1011F8005E000322B24024EA02044A6802F00302B5
:10120800B240224302604A6812F4403FCAD000222A
:101218000192264A546C44F480445464526C02F49B
:1012280080420192019A9C08A61C1E4A52F8267018
:1012380003F0030296000F22B24027EA02071C4A75
:1012480090423FF47BAF02F5806290421AD002F5DB
:101258008062904218D002F58062904216D002F562
:101268008062904214D002F58062904212D002F55A
:101278008062904210D002F5806290423FF45CAFE9
:1012880008225CE701225AE7022258E7032256E7C0
:10129800042254E7052252E7062250E702B0F0BCC8
:1012A8007047704700380140003C01400038024058
:1012B80000000240002800F0DF8170B582B00446CB
:1012C800036813F0010F3BD0A64B9B6803F00C0397
:1012D800042B2CD0A34B9B6803F00C03082B21D0C4
:1012E8006368B3F5803F4FD0B3F5A02F52D09D4B24
:1012F8001A6822F480321A601A6822F480221A606E
:101308006368002B50D0FFF74BFC0546954B1B68D4
:1013180013F4003F14D1FFF743FC401B6428F5D9B0
:101328000320B0E18F4B5B6813F4800FD8D08D4B4E
:101338001B6813F4003F03D06368002B00F09E8104
:10134800236813F0020F54D0864B9B6813F00C0FE0
:101358003ED0844B9B6803F00C03082B33D0E36822
:10136800002B67D0804B01221A60FFF719FC054655
:101378007C4B1B6813F0020F53D1FFF711FC401B85
:101388000228F5D903207EE1764A136843F48033B6
:101398001360B5E7734B1A6842F480221A601A6822
:1013A80042F480321A60ABE7FFF7FAFB05466D4B53
:1013B8001B6813F4003FC3D0FFF7F2FB401B6428FF
:1013C800F5D903205FE1674B5B6813F4800FC6D142
:1013D800644B1B6813F0020F03D0E368012B40F045
:1013E8004F81604A136823F0F803216943EAC10377
:1013F8001360236813F0080F40D0636963B35B4B35
:1014080001221A60FFF7CCFB0546564B5B6F13F0C1
:10141800020F33D1FFF7C4FB401B0228F5D9032084
:1014280031E1504A136823F0F803216943EAC10304
:101438001360DEE74C4B00221A60FFF7B1FB05464C
:10144800484B1B6813F0020FD3D0FFF7A9FB401BD2
:101458000228F5D9032016E1444B00221A60FFF751
:101468009FFB05463F4B5B6F13F0020F06D0FFF75B
:1014780097FB401B0228F5D9032004E1236813F0E9
:10148800040F78D0374B1B6C13F0805F0DD100230D
:101498000193344B1A6C42F080521A641B6C03F0AF
:1014A80080530193019B012500E00025304B1B6808
:1014B80013F4807F21D0A368012B32D0052B36D0BE
:1014C800284B1A6F22F001021A671A6F22F00402E1
:1014D8001A67A368002B34D0FFF762FB0646214B3E
:1014E8001B6F13F0020F45D1FFF75AFB801B41F227
:1014F80088339842F3D90320C5E01D4A136843F4A2
:1015080080731360FFF74CFB0646194B1B6813F4F6
:10151800807FD0D1FFF744FB801B0228F5D9032038
:10152800B1E0104A136F43F001031367D1E70D4B85
:101538001A6F42F004021A671A6F42F001021A6722
:10154800C7E7FFF72DFB0646064B1B6F13F0020F8C
:1015580010D0FFF725FB801B41F288339842F3D95E
:10156800032090E00038024000004742800E4742C6
:1015780000700040EDB9A369002B00F08380494A50
:10158800926802F00C02082A51D0022B17D0464B61
:1015980000221A60FFF704FB0446424B1B6813F055
:1015A800007F42D0FFF7FCFA001B0228F5D9032080
:1015B80069E03C4A136C23F080531364DBE73A4B31
:1015C80000221A60FFF7ECFA0546364B1B6813F049
:1015D800007F06D0FFF7E4FA401B0228F5D9032064
:1015E80051E0E369226A1343626A43EA8213A26AFA
:1015F8005208013A43EA0243E26A43EA0263294A8B
:101608005360294B01221A60FFF7CAFA0446254B9A
:101618001B6813F0007F06D1FFF7C2FA001B0228EF
:10162800F5D903202FE000202DE000202BE0012B2E
:101638002BD01C4B5B6803F48001E269914226D1F0
:1016480003F03F02216A8A4223D1616A47F6C072D9
:101658001A40B2EB811F1ED103F44031A26A52082E
:10166800013AB1EB024F18D103F07063E26AB3EBB1
:10167800026F14D1002006E001207047012002E02B
:10168800012000E0002002B070BD0120FBE701202E
:10169800F9E70120F7E70120F5E70120F3E701204A
:1016A800F1E700BF0038024060004742F8B5244B1C
:1016B8009B6803F00C03042B3DD0082B3DD1204B35
:1016C8005A6802F03F025B6813F4800F12D01C4B7B
:1016D8005968C1F3881100231A48A1FB0001FEF7DD
:1016E8006FFD174B5B68C3F3014301335B00B0FB2D
:1016F800F3F023E0124B5B68C3F388135C01002509
:10170800E41A65F10005AE0146EA9466A701381BA4
:1017180066EB0501CC0044EA5074C500E81844F1B2
:1017280000018B0243EA90538402204619460023A5
:10173800FEF746FDD5E7034800E00348F8BD00BFC3
:1017480000380240001BB7000024F400002800F015
:101758009B8070B50D4604464F4B1B6803F007038A
:101768008B4208D2CBB24C4A1370136803F00703BC
:101778008B4240F08B80236813F0020F17D013F0D0
:10178800040F04D0454A936843F4E05393602368F8
:1017980013F0080F04D0414A936843F46043936000
:1017A8003E4A936823F0F003A1680B4393602368D3
:1017B80013F0010F32D06368012B21D09A1E012A41
:1017C80025D9364A126812F0020F61D033498A6867
:1017D80022F0030213438B60FFF7E2F906462F4B12
:1017E8009B6803F00C036268B3EB820F16D0FFF717
:1017F800D7F9801B41F288339842F0D9032042E0A0
:10180800264A126812F4003FE0D101203BE0234A47
:10181800126812F0007FD9D1012034E01E4B1B68FA
:1018280003F00703AB4207D9EAB21B4B1A701B68D7
:1018380003F00703AB422DD1236813F0040F06D041
:10184800164A936823F4E053E1680B4393602368D6
:1018580013F0080F07D0114A936823F460432169F5
:1018680043EAC1039360FFF721FF0C4B9B68C3F366
:1018780003130B4AD35CD8400A4B18600A4B18680C
:10188800FFF742F9002070BD012070470120FAE7F8
:101898000120F8E70120F6E7003C0240003802404A
:1018A8002C2500080000002008000020014B1868C3
:1018B800704700BF0000002008B5FFF7F7FF044B92
:1018C8009B68C3F38223034AD35CD84008BD00BF9A
:1018D800003802403C25000808B5FFF7E7FF044B35
:1018E8009B68C3F34233034AD35CD84008BD00BFAA
:1018F800003802403C25000830B4036A23F0010395
:101908000362056A4268846924F073040B681C4307
:1019180025F002058B682B43104DA84203D005F52E
:101928008065A84205D123F00803CD682B4323F036
:1019380004030A4DA84203D005F58065A84205D1E5
:1019480022F440724D6915438A692A4342608461D2
:101958004A684263036230BC704700BF0000014020
:1019680030B4036A23F480730362036A4268C4696B
:1019780024F073040D682C4323F400738D6843EA44
:101988000523124DA84203D005F58065A84206D16B
:1019980023F40063CD6843EA052323F480630B4DE9
:1019A800A84203D005F58065A84207D122F4405229
:1019B8004D6942EA05128D6942EA05124260C46126
:1019C8004A68C263036230BC704700BF0000014030
:1019D80030B4036A23F480530362036A4468C2691B
:1019E80022F4E6420D6842EA052223F400538D688A
:1019F80043EA0533094DA84203D005F58065A8429E
:101A080004D124F480444D6944EA85144460C261D9
:101A18004A680264036230BC704700BF000001409E
:101A28000368304A904212D0B0F1804F0FD0A2F52F
:101A38007C4290420BD002F58062904207D002F5BA
:101A48008062904203D002F57842904203D123F09D
:101A580070034A681343234A90422AD0B0F1804F5A
:101A680027D0A2F57C42904223D002F580629042B2
:101A78001FD002F5806290421BD002F57842904256
:101A880017D002F57052904213D002F5806290424E
:101A98000FD002F5806290420BD0A2F598329042A6
:101AA80007D002F58062904203D002F5806290422E
:101AB80003D123F44073CA68134323F080034A69AF
:101AC800134303608B68C3620B688362054B9842BB
:101AD80003D003F58063984201D10B6903630123A6
:101AE800436170470000014040B310B5044690F8C8
:101AF8003D30F3B1022384F83D30214651F8040B00
:101B0800FFF78EFF012384F8463084F83E3084F8CE
:101B18003F3084F8403084F8413084F8423084F80B
:101B2800433084F8443084F8453084F83D30002050
:101B380010BD80F83C30FEF733FEDBE7012070472C
:101B480030B4036A23F010030362036A44688269AD
:101B580022F4E6420D6842EA052223F020038D684C
:101B680043EA0513114DA84203D005F58065A84244
:101B780006D123F08003CD6843EA051323F0400320
:101B88000A4DA84203D005F58065A84207D124F480
:101B980040644D6944EA85048D6944EA85044460DB
:101BA80082614A688263036230BC7047000001406A
:101BB80038B590F83C30012B66D004460D46012319
:101BC80080F83C300C2A5AD8DFE802F007595959F6
:101BD8001B5959593059595944000068FFF78CFE70
:101BE8002268936943F0080393612268936923F09C
:101BF800040393612268936929690B439361002068
:101C08003EE00068FFF79CFF2268936943F4006395
:101C180093612268936923F48063936122689369CE
:101C2800296943EA01239361002029E00068FFF74E
:101C380097FE2268D36943F00803D3612268D36909
:101C480023F00403D3612268D36929690B43D36164
:101C5800002015E00068FFF7BBFE2268D36943F453
:101C68000063D3612268D36923F48063D361226857
:101C7800D369296943EA0123D361002000E00120E8
:101C8800002384F83C3038BD0220FCE710B401F092
:101C98001F01012303FA01F4036A23EA0403036220
:101CA800036A02FA01F10B4303625DF8044B7047C3
:101CB80010B504460846002942D194F83E30DBB2FC
:101CC800013B18BF0123002B6ED1002851D10223FC
:101CD80084F83E30012201462068FFF7D7FF2368C9
:101CE800334A934203D002F58062934203D15A6C7F
:101CF80042F400425A6423682D4A934249D0B3F112
:101D0800804F46D0A2F57C42934242D002F58062D1
:101D180093423ED002F5806293423AD002F578426F
:101D2800934236D002F57052934232D0A2F59432E3
:101D380093422ED01A6842F001021A60002032E065
:101D4800042908D008290DD094F84130DBB2013BB2
:101D580018BF0123B7E794F83F30DBB2013B18BF47
:101D68000123B0E794F84030DBB2013B18BF0123F0
:101D7800A9E7042805D0082807D0022384F84130B1
:101D8800A8E7022384F83F30A4E7022384F8403010
:101D9800A0E79A6802F00702062A07D01A6842F0FC
:101DA80001021A60002010BD0120FCE70020FAE7BC
:101DB8000000014090F83C30012B3BD030B40123A7
:101DC80080F83C30022380F83D3003685C689D68E9
:101DD80024F070040A6822435A600368164A934242
:101DE8001AD0B3F1804F17D0A2F57C42934213D09A
:101DF80002F5806293420FD002F5806293420BD0C5
:101E080002F57842934207D002F57052934203D00C
:101E1800A2F59432934204D125F080054A6815430F
:101E28009D60012380F83D30002380F83C3018463F
:101E380030BC7047022070470000014090F83C30E9
:101E4800012B22D0012380F83C30CB6823F4407367
:101E58008A68134323F480634A68134323F40063B6
:101E68000A68134323F480530A69134323F4005385
:101E78004A69134323F48043CA69134302685364CD
:101E8800002380F83C3018467047022070470268EB
:101E980002F10C0353E8003F23F490730C3242E83C
:101EA80000310029F3D1026802F1140353E8003F1E
:101EB80023F00103143242E800310029F3D1036B07
:101EC800012B05D0202380F83E30002303637047A0
:101ED800026802F10C0353E8003F23F010030C32B0
:101EE80042E800310029F3D1ECE790F83D30DBB24D
:101EF800212B01D0022070478368B3F5805F17D08B
:101F0800036A5A1C02621A7803685A60C38C9BB22F
:101F1800013B9BB2C3844BB90268D36823F08003AA
:101F2800D3600268D36843F04003D3600020704751
:101F38000369002BE4D1036A1B880268C3F3080312
:101F48005360036A02330362E0E7000070B5044699
:101F58000268136923F44053C1680B431361836813
:101F68000269134342691343C2691A430168CB6883
:101F780023F4164323F00C031343CB600268536920
:101F880023F4407381690B4353610368344A9342D5
:101F980006D002F58062934202D0FFF78DFC01E083
:101FA800FFF79AFCE369B3F5004F2AD0002605181D
:101FB80046EB06012D1846EB0101CB0043EA5573A9
:101FC800EA001546194663689A009B0F281846EBE5
:101FD8000101FEF7F5F8234DA5FB003251096423F2
:101FE80003FB11031B013233A5FB03235B0903F039
:101FF800F00202EB011203F00F03216813448B6017
:1020080070BD0026051846EB06012D1846EB0101A8
:10201800CB0043EA5573EA00154619466268334611
:10202800921846EB0303281846EB0101FEF7C8F89F
:102038000C4DA5FB00325109642303FB1103DB009F
:102048003233A5FB03235B095A0002F4F87202EB52
:10205800011203F00703216813448B60D0E700BF27
:10206800001001401F85EB5158B310B5044690F895
:102078003D300BB3242384F83D302268D36823F421
:102088000053D3602046FFF761FF2268136923F4E9
:10209800904313612268536923F02A03536122682D
:1020A800D36843F40053D36000202064202384F8CD
:1020B8003D3084F83E3010BD80F83C30FEF754FCCB
:1020C800D8E701207047704708B50168CA6822F050
:1020D8004002CA60202280F83D20FFF7F4FF00206C
:1020E80008BD7047704708B5806B0023C385C3845B
:1020F800FFF7F8FF08BD704790F83E30DBB2222B9F
:1021080067D18368B3F5805F4DD0826AB3F5805F8D
:1021180004D0002B54D10369002B51D103685B68AC
:102128001370836A01338362C38D9BB2013B9BB2F8
:10213800C385002B4FD100B583B00268D36823F064
:102148002003D3600268D36823F48073D3600268E5
:10215800536923F001035361202380F83E30036B59
:10216800012B33D100230363026802F10C0353E807
:10217800003F23F010030C3242E800310029F3D16C
:1021880003681A6812F0100F06D0002201921A682C
:1021980001925B680193019B818DFFF7ACFF0020E2
:1021A80003B05DF804FB0269002AAED1826A0368B5
:1021B8005B68C3F308031380836A02338362B3E75F
:1021C80003685B6803F07F031370AAE7FFF789FFD2
:1021D800E5E70220704700207047000030B583B063
:1021E800044602681368D068516913F00F0505D1D9
:1021F80013F0200F02D010F0200F19D12DB111F0DB
:10220800010119D110F4907F16D1216B01297DD0DD
:1022180013F0800F03D010F0800F40F0158113F0F9
:10222800400F03D010F0400F40F0128103B030BDD2
:102238002046FFF761FFF9E713F0010F06D010F40D
:10224800807F03D0226C42F00102226413F0040F55
:1022580004D019B1226C42F00202226413F0020F7A
:1022680004D019B1226C42F00402226413F0080F62
:1022780007D010F0200F00D119B1226C42F00802EB
:102288002264226C002AD1D013F0200F02D010F063
:10229800200F29D123685B6903F04003226C12F0F8
:1022A800080F00D163B32046FFF7F1FD23685B698F
:1022B80013F0400F20D0226802F1140353E8003FC6
:1022C80023F04003143242E800310029F3D1A36B14
:1022D80073B1614A1A65A06BFEF700FE0028A5D00D
:1022E800A06B036D9847A1E72046FFF705FFD1E7EC
:1022F8002046FFF7F7FE99E72046FFF7F3FE95E73C
:102308002046FFF7EFFE002323648FE713F0100F3A
:102318003FF47EAF10F0100F3FF47AAF0023019323
:102328001368019353680193019B536913F0400F9D
:1023380050D0A26B13685B689BB2002B3FF476AF5A
:10234800A18D99427FF672AFE385D369B3F5807F9B
:1023580037D0226802F10C0353E8003F23F480735E
:102368000C3242E800310029F3D1226802F114034B
:1023780053E8003F23F00103143242E800310029FA
:10238800F3D1226802F1140353E8003F23F040031D
:10239800143242E800310029F3D1202384F83E307A
:1023A80000232363226802F10C0353E8003F23F063
:1023B80010030C3242E800310029F3D1A06BFEF77C
:1023C80043FDA18DE38D9BB2C91A89B22046FFF760
:1023D80092FE2BE7A18DE38D9BB2C91A89B2E38DDA
:1023E8009BB2002B3FF422AF00293FF41FAF2268B5
:1023F80002F10C0353E8003F23F490730C3242E8D7
:1024080000300028F3D1226802F1140353E8003F9A
:1024180023F00103143242E800300028F3D12023CE
:1024280084F83E3000232363226802F10C0353E84A
:10243800003F23F010030C3242E800300028F3D1AB
:102448002046FFF758FEF1E62046FFF74EFDEDE681
:102458002046FFF739FEE9E6EF2000087047000044
:10246800DFF834D00D480E490E4A002302E0D45854
:10247800C4500433C4188C42F9D30B4A0B4C0023C4
:1024880001E013600432A242FBD3FEF77FF900F0AB
:1024980011F8FEF7C3F87047000002200000002082
:1024A8000C0000205C2500080C000020AC02002075
:1024B800FEE7000070B50D4D0D4C641BA4100026FE
:1024C800A64209D10B4D0C4C00F020F8641BA41057
:1024D8000026A64205D170BD55F8043B9847013641
:1024E800EEE755F8043B98470136F2E75425000813
:1024F80054250008542500085825000802440346BE
:10250800934200D1704703F8011BF9E7F8B500BF03
:10251800F8BC08BC9E467047F8B500BFF8BC08BCBC
:042528009E46704714
:10252C000000000000000000010203040607080977
:10253C00000000000102030400061016000610162D
:08254C00ACDCFF7F0100000080
:04255400AD010008CD
:0425580089010008ED
:0C255C000024F40001000000100000004A
:040000050800246962
:00000001FF
